{
  "contractName": "Bank",
  "abi": [
    {
      "constant": true,
      "inputs": [
        {
          "name": "",
          "type": "address"
        }
      ],
      "name": "customers",
      "outputs": [
        {
          "name": "",
          "type": "bool"
        }
      ],
      "payable": false,
      "stateMutability": "view",
      "type": "function",
      "signature": "0x336989ae"
    },
    {
      "constant": true,
      "inputs": [],
      "name": "customerCount",
      "outputs": [
        {
          "name": "",
          "type": "uint256"
        }
      ],
      "payable": false,
      "stateMutability": "view",
      "type": "function",
      "signature": "0x9757e8a3"
    },
    {
      "constant": true,
      "inputs": [
        {
          "name": "",
          "type": "uint256"
        }
      ],
      "name": "accounts",
      "outputs": [
        {
          "name": "name",
          "type": "string"
        },
        {
          "name": "owner",
          "type": "address"
        }
      ],
      "payable": false,
      "stateMutability": "view",
      "type": "function",
      "signature": "0xf2a40db8"
    },
    {
      "constant": true,
      "inputs": [],
      "name": "admin",
      "outputs": [
        {
          "name": "",
          "type": "address"
        }
      ],
      "payable": false,
      "stateMutability": "view",
      "type": "function",
      "signature": "0xf851a440"
    },
    {
      "inputs": [],
      "payable": false,
      "stateMutability": "nonpayable",
      "type": "constructor",
      "signature": "constructor"
    },
    {
      "anonymous": false,
      "inputs": [
        {
          "indexed": true,
          "name": "_id",
          "type": "int256"
        },
        {
          "indexed": true,
          "name": "_from",
          "type": "address"
        },
        {
          "indexed": true,
          "name": "messages",
          "type": "string"
        }
      ],
      "name": "EventLog",
      "type": "event",
      "signature": "0x43de70b2a96ce1e4048ad482b74c437e19e4bd0d7f222d0227ab7e842cf9e398"
    },
    {
      "constant": false,
      "inputs": [
        {
          "name": "name",
          "type": "string"
        }
      ],
      "name": "createAccount",
      "outputs": [],
      "payable": false,
      "stateMutability": "nonpayable",
      "type": "function",
      "signature": "0x298daf5b"
    },
    {
      "constant": true,
      "inputs": [
        {
          "name": "index",
          "type": "uint256"
        }
      ],
      "name": "viewBalance",
      "outputs": [
        {
          "name": "balance",
          "type": "uint256"
        }
      ],
      "payable": false,
      "stateMutability": "view",
      "type": "function",
      "signature": "0x1bb66250"
    },
    {
      "constant": false,
      "inputs": [
        {
          "name": "index",
          "type": "uint256"
        }
      ],
      "name": "deposit",
      "outputs": [],
      "payable": true,
      "stateMutability": "payable",
      "type": "function",
      "signature": "0xb6b55f25"
    },
    {
      "constant": false,
      "inputs": [
        {
          "name": "amount",
          "type": "uint256"
        },
        {
          "name": "index",
          "type": "uint256"
        }
      ],
      "name": "withdraw",
      "outputs": [
        {
          "name": "remainingBalance",
          "type": "uint256"
        }
      ],
      "payable": false,
      "stateMutability": "nonpayable",
      "type": "function",
      "signature": "0x441a3e70"
    },
    {
      "constant": false,
      "inputs": [
        {
          "name": "receiver",
          "type": "address"
        },
        {
          "name": "amount",
          "type": "uint256"
        },
        {
          "name": "index",
          "type": "uint256"
        }
      ],
      "name": "transferFunds",
      "outputs": [],
      "payable": false,
      "stateMutability": "nonpayable",
      "type": "function",
      "signature": "0x34ad7075"
    }
  ],
  "bytecode": "0x608060405234801561001057600080fd5b50336000806101000a81548173ffffffffffffffffffffffffffffffffffffffff021916908373ffffffffffffffffffffffffffffffffffffffff1602179055506000600281905550611453806100686000396000f3fe608060405260043610610099576000357c0100000000000000000000000000000000000000000000000000000000900463ffffffff1680631bb662501461009e578063298daf5b146100ed578063336989ae146101b557806334ad70751461021e578063441a3e70146102835780639757e8a3146102dc578063b6b55f2514610307578063f2a40db814610335578063f851a4401461041c575b600080fd5b3480156100aa57600080fd5b506100d7600480360360208110156100c157600080fd5b8101908080359060200190929190505050610473565b6040518082815260200191505060405180910390f35b3480156100f957600080fd5b506101b36004803603602081101561011057600080fd5b810190808035906020019064010000000081111561012d57600080fd5b82018360208201111561013f57600080fd5b8035906020019184600183028401116401000000008311171561016157600080fd5b91908080601f016020809104026020016040519081016040528093929190818152602001838380828437600081840152601f19601f820116905080830192505050505050509192919290505050610743565b005b3480156101c157600080fd5b50610204600480360360208110156101d857600080fd5b81019080803573ffffffffffffffffffffffffffffffffffffffff169060200190929190505050610a8a565b604051808215151515815260200191505060405180910390f35b34801561022a57600080fd5b506102816004803603606081101561024157600080fd5b81019080803573ffffffffffffffffffffffffffffffffffffffff1690602001909291908035906020019092919080359060200190929190505050610aaa565b005b34801561028f57600080fd5b506102c6600480360360408110156102a657600080fd5b810190808035906020019092919080359060200190929190505050610db8565b6040518082815260200191505060405180910390f35b3480156102e857600080fd5b506102f1611068565b6040518082815260200191505060405180910390f35b6103336004803603602081101561031d57600080fd5b810190808035906020019092919050505061106e565b005b34801561034157600080fd5b5061036e6004803603602081101561035857600080fd5b8101908080359060200190929190505050611242565b60405180806020018373ffffffffffffffffffffffffffffffffffffffff1673ffffffffffffffffffffffffffffffffffffffff168152602001828103825284818151815260200191508051906020019080838360005b838110156103e05780820151818401526020810190506103c5565b50505050905090810190601f16801561040d5780820380516001836020036101000a031916815260200191505b50935050505060405180910390f35b34801561042857600080fd5b5061043161132d565b604051808273ffffffffffffffffffffffffffffffffffffffff1673ffffffffffffffffffffffffffffffffffffffff16815260200191505060405180910390f35b60008060009054906101000a900473ffffffffffffffffffffffffffffffffffffffff1673ffffffffffffffffffffffffffffffffffffffff163373ffffffffffffffffffffffffffffffffffffffff161415151561053a576040517f08c379a000000000000000000000000000000000000000000000000000000000815260040180806020018281038252601b8152602001807f41646d696e2063616e6e6f7420637265617465206163636f756e74000000000081525060200191505060405180910390fd5b600460003373ffffffffffffffffffffffffffffffffffffffff1673ffffffffffffffffffffffffffffffffffffffff16815260200190815260200160002060009054906101000a900460ff1615156105fb576040517f08c379a00000000000000000000000000000000000000000000000000000000081526004018080602001828103825260128152602001807f4e6f204163636f756e742050726573656e74000000000000000000000000000081525060200191505060405180910390fd5b60038281548110151561060a57fe5b906000526020600020906003020160010160009054906101000a900473ffffffffffffffffffffffffffffffffffffffff1673ffffffffffffffffffffffffffffffffffffffff163373ffffffffffffffffffffffffffffffffffffffff161415156106de576040517f08c379a00000000000000000000000000000000000000000000000000000000081526004018080602001828103825260118152602001807f4163636f756e74206e6f7420666f756e6400000000000000000000000000000081525060200191505060405180910390fd5b6003828154811015156106ed57fe5b906000526020600020906003020160020160003373ffffffffffffffffffffffffffffffffffffffff1673ffffffffffffffffffffffffffffffffffffffff168152602001908152602001600020549050919050565b6000809054906101000a900473ffffffffffffffffffffffffffffffffffffffff1673ffffffffffffffffffffffffffffffffffffffff163373ffffffffffffffffffffffffffffffffffffffff1614151515610808576040517f08c379a000000000000000000000000000000000000000000000000000000000815260040180806020018281038252601b8152602001807f41646d696e2063616e6e6f7420637265617465206163636f756e74000000000081525060200191505060405180910390fd5b600460003373ffffffffffffffffffffffffffffffffffffffff1673ffffffffffffffffffffffffffffffffffffffff16815260200190815260200160002060009054906101000a900460ff161515156108ca576040517f08c379a00000000000000000000000000000000000000000000000000000000081526004018080602001828103825260168152602001807f416c72656164792068617320616e204163636f756e740000000000000000000081525060200191505060405180910390fd5b6108d2611352565b60408051908101604052808381526020013373ffffffffffffffffffffffffffffffffffffffff168152509050600381908060018154018082558091505090600182039060005260206000209060030201600090919290919091506000820151816000019080519060200190610949929190611382565b5060208201518160010160006101000a81548173ffffffffffffffffffffffffffffffffffffffff021916908373ffffffffffffffffffffffffffffffffffffffff1602179055505050506001600081548092919060010191905055506001600460003373ffffffffffffffffffffffffffffffffffffffff1673ffffffffffffffffffffffffffffffffffffffff16815260200190815260200160002060006101000a81548160ff02191690831515021790555060405180807f4e6577204163636f756e74206372656174656400000000000000000000000000815250601301905060405180910390203373ffffffffffffffffffffffffffffffffffffffff166002600081546001019190508190557f43de70b2a96ce1e4048ad482b74c437e19e4bd0d7f222d0227ab7e842cf9e39860405160405180910390a45050565b60046020528060005260406000206000915054906101000a900460ff1681565b600460003373ffffffffffffffffffffffffffffffffffffffff1673ffffffffffffffffffffffffffffffffffffffff16815260200190815260200160002060009054906101000a900460ff161515610b6b576040517f08c379a00000000000000000000000000000000000000000000000000000000081526004018080602001828103825260128152602001807f4e6f204163636f756e742050726573656e74000000000000000000000000000081525060200191505060405180910390fd5b600460008473ffffffffffffffffffffffffffffffffffffffff1673ffffffffffffffffffffffffffffffffffffffff16815260200190815260200160002060009054906101000a900460ff161515610c2c576040517f08c379a000000000000000000000000000000000000000000000000000000000815260040180806020018281038252601f8152602001807f526563656976657220646f65736e74206861766520616e206163636f756e740081525060200191505060405180910390fd5b81600382815481101515610c3c57fe5b906000526020600020906003020160020160003373ffffffffffffffffffffffffffffffffffffffff1673ffffffffffffffffffffffffffffffffffffffff1681526020019081526020016000205410151515610d01576040517f08c379a000000000000000000000000000000000000000000000000000000000815260040180806020018281038252601a8152602001807f4163636f756e742062616c616e6365206e6f7420656e6f75676800000000000081525060200191505060405180910390fd5b8273ffffffffffffffffffffffffffffffffffffffff166108fc839081150290604051600060405180830381858888f19350505050158015610d47573d6000803e3d6000fd5b5081600382815481101515610d5857fe5b906000526020600020906003020160020160003373ffffffffffffffffffffffffffffffffffffffff1673ffffffffffffffffffffffffffffffffffffffff16815260200190815260200160002060008282540392505081905550505050565b6000600460003373ffffffffffffffffffffffffffffffffffffffff1673ffffffffffffffffffffffffffffffffffffffff16815260200190815260200160002060009054906101000a900460ff161515610e7b576040517f08c379a00000000000000000000000000000000000000000000000000000000081526004018080602001828103825260128152602001807f4e6f204163636f756e742050726573656e74000000000000000000000000000081525060200191505060405180910390fd5b600382815481101515610e8a57fe5b906000526020600020906003020160020160003373ffffffffffffffffffffffffffffffffffffffff1673ffffffffffffffffffffffffffffffffffffffff168152602001908152602001600020548311151515610f50576040517f08c379a00000000000000000000000000000000000000000000000000000000081526004018080602001828103825260128152602001807f42616c616e6365206e6f7420656e6f756768000000000000000000000000000081525060200191505060405180910390fd5b3373ffffffffffffffffffffffffffffffffffffffff166108fc849081150290604051600060405180830381858888f19350505050158015610f96573d6000803e3d6000fd5b5082600383815481101515610fa757fe5b906000526020600020906003020160020160003373ffffffffffffffffffffffffffffffffffffffff1673ffffffffffffffffffffffffffffffffffffffff1681526020019081526020016000206000828254039250508190555060038281548110151561101157fe5b906000526020600020906003020160020160003373ffffffffffffffffffffffffffffffffffffffff1673ffffffffffffffffffffffffffffffffffffffff16815260200190815260200160002054905092915050565b60015481565b600460003373ffffffffffffffffffffffffffffffffffffffff1673ffffffffffffffffffffffffffffffffffffffff16815260200190815260200160002060009054906101000a900460ff16151561112f576040517f08c379a00000000000000000000000000000000000000000000000000000000081526004018080602001828103825260128152602001807f4e6f204163636f756e742050726573656e74000000000000000000000000000081525060200191505060405180910390fd5b662386f26fc1000034101515156111d4576040517f08c379a00000000000000000000000000000000000000000000000000000000081526004018080602001828103825260258152602001807f4d696e696d756d20302e303120657468657220697320746f206265206465706f81526020017f736974656400000000000000000000000000000000000000000000000000000081525060400191505060405180910390fd5b346003828154811015156111e457fe5b906000526020600020906003020160020160003373ffffffffffffffffffffffffffffffffffffffff1673ffffffffffffffffffffffffffffffffffffffff1681526020019081526020016000206000828254019250508190555050565b60038181548110151561125157fe5b9060005260206000209060030201600091509050806000018054600181600116156101000203166002900480601f0160208091040260200160405190810160405280929190818152602001828054600181600116156101000203166002900480156112fd5780601f106112d2576101008083540402835291602001916112fd565b820191906000526020600020905b8154815290600101906020018083116112e057829003601f168201915b5050505050908060010160009054906101000a900473ffffffffffffffffffffffffffffffffffffffff16905082565b6000809054906101000a900473ffffffffffffffffffffffffffffffffffffffff1681565b604080519081016040528060608152602001600073ffffffffffffffffffffffffffffffffffffffff1681525090565b828054600181600116156101000203166002900490600052602060002090601f016020900481019282601f106113c357805160ff19168380011785556113f1565b828001600101855582156113f1579182015b828111156113f05782518255916020019190600101906113d5565b5b5090506113fe9190611402565b5090565b61142491905b80821115611420576000816000905550600101611408565b5090565b9056fea165627a7a723058207e7afb7e92e551eefff1b0455c951bf7570462af96ed5dee64bff3b2ea508d190029",
  "source": "pragma solidity ^0.5.0 ;\n\ncontract Bank{\n    \n    address public admin;\n    uint public customerCount;\n    int256 private counter;\n    \n    //Struct Account definition\n    struct Account{\n       string name;\n       address  owner;\n       mapping( address => uint256) balance;\n    }\n    \n    //Array of accounts\n    Account[] public accounts;\n    \n    //Mapping of accounts\n    mapping(address => bool) public customers;\n\n\n    //Event \n    event EventLog(\n        int256 indexed _id,\n        address indexed _from,\n        string indexed messages\n    );\n\n\n    //Modifier\n    modifier restricted(){\n        require(msg.sender != admin, \"Admin cannot create account\");\n        _;\n    }\n    \n    modifier hasAccount(){\n         require(customers[msg.sender], \"No Account Present\");\n         _;\n    }\n    \n    constructor() public \n    {\n        admin = msg.sender ;\n        counter = 0;\n    }\n    \n\n    function createAccount(string memory name) public  restricted\n    {\n        require(!customers[msg.sender] , \"Already has an Account\");\n        Account memory newaccount = Account({\n            name : name,\n            owner: msg.sender\n        });\n        accounts.push(newaccount);\n        customerCount++;\n        customers[msg.sender] = true;\n        emit  EventLog(++counter , msg.sender,  \"New Account created\") ;\n    }\n    \n    function viewBalance(uint index) public restricted hasAccount view returns (uint256 balance)\n    {\n         require(msg.sender==accounts[index].owner , \"Account not found\");\n         return accounts[index].balance[msg.sender];\n         \n    }\n    \n    function deposit(uint256 index) public hasAccount payable {\n        require(msg.value >= 0.01 ether, \"Minimum 0.01 ether is to be deposited\");\n        accounts[index].balance[msg.sender] += msg.value;\n    }\n    \n    function withdraw(uint256 amount, uint256 index) public hasAccount returns (uint256 remainingBalance)\n    {\n        require(amount <= accounts[index].balance[msg.sender], \"Balance not enough\");\n        msg.sender.transfer(amount);\n        accounts[index].balance[msg.sender] -= amount;\n        return accounts[index].balance[msg.sender];\n    }\n    \n    function transferFunds(address payable receiver, uint256 amount, uint256 index) public hasAccount {\n        \n        require(customers[receiver], \"Receiver doesnt have an account\");\n        require(accounts[index].balance[msg.sender] >= amount, \"Account balance not enough\");\n        receiver.transfer(amount);\n        accounts[index].balance[msg.sender] -= amount;\n    }\n}",
  "sourcePath": "/Users/prakashdas/Desktop/Realproject/BankChain/contracts/Bank.sol",
  "compiler": {
    "name": "solc",
    "version": "0.5.0+commit.1d4f565a.Emscripten.clang"
  },
  "schemaVersion": "3.0.2",
  "updatedAt": "2019-03-13T19:15:29.015Z",
  "devdoc": {
    "methods": {}
  },
  "userdoc": {
    "methods": {}
  }
}