{
  "contractName": "ConvertLib",
  "abi": [
    {
      "constant": true,
      "inputs": [
        {
          "name": "amount",
          "type": "uint256"
        },
        {
          "name": "conversionRate",
          "type": "uint256"
        }
      ],
      "name": "convert",
      "outputs": [
        {
          "name": "convertedAmount",
          "type": "uint256"
        }
      ],
      "payable": false,
      "stateMutability": "pure",
      "type": "function"
    }
  ],
  "bytecode": "0x60dd61002f600b82828239805160001a6073146000811461001f57610021565bfe5b5030600052607381538281f3fe73000000000000000000000000000000000000000030146080604052600436106056576000357c0100000000000000000000000000000000000000000000000000000000900463ffffffff16806396e4ee3d14605b575b600080fd5b608e60048036036040811015606f57600080fd5b81019080803590602001909291908035906020019092919050505060a4565b6040518082815260200191505060405180910390f35b600081830290509291505056fea165627a7a72305820929662b2cc6051dc26f075afc48fe2b8c88bfb1bfe54360f09097f06a9ca622b0029",
  "source": "library ConvertLib{\n\tfunction convert(uint amount,uint conversionRate) public pure returns (uint convertedAmount)\n\t{\n\t\treturn amount * conversionRate;\n\t}\n}",
  "sourcePath": "/Users/prakashdas/Desktop/Realproject/BankChain/contracts/ConvertLib.sol",
  "compiler": {
    "name": "solc",
    "version": "0.5.0+commit.1d4f565a.Emscripten.clang"
  },
  "schemaVersion": "3.0.2",
  "updatedAt": "2019-03-14T08:19:49.436Z",
  "devdoc": {
    "methods": {}
  },
  "userdoc": {
    "methods": {}
  }
}